{
  "contractName": "CategoryCatalog",
  "abi": [
    {
      "constant": true,
      "inputs": [],
      "name": "GetCount",
      "outputs": [
        {
          "name": "",
          "type": "uint256"
        }
      ],
      "payable": false,
      "stateMutability": "view",
      "type": "function"
    },
    {
      "constant": false,
      "inputs": [
        {
          "name": "i",
          "type": "uint256"
        },
        {
          "name": "category",
          "type": "address"
        }
      ],
      "name": "Update",
      "outputs": [],
      "payable": false,
      "stateMutability": "nonpayable",
      "type": "function"
    },
    {
      "constant": false,
      "inputs": [
        {
          "name": "i",
          "type": "uint256"
        }
      ],
      "name": "Remove",
      "outputs": [],
      "payable": false,
      "stateMutability": "nonpayable",
      "type": "function"
    },
    {
      "constant": false,
      "inputs": [
        {
          "name": "category",
          "type": "address"
        }
      ],
      "name": "Add",
      "outputs": [],
      "payable": false,
      "stateMutability": "nonpayable",
      "type": "function"
    },
    {
      "constant": true,
      "inputs": [],
      "name": "GetAll",
      "outputs": [
        {
          "name": "",
          "type": "address[]"
        }
      ],
      "payable": false,
      "stateMutability": "view",
      "type": "function"
    },
    {
      "constant": true,
      "inputs": [],
      "name": "Owner",
      "outputs": [
        {
          "name": "",
          "type": "address"
        }
      ],
      "payable": false,
      "stateMutability": "view",
      "type": "function"
    },
    {
      "constant": false,
      "inputs": [],
      "name": "RemoveAll",
      "outputs": [],
      "payable": false,
      "stateMutability": "nonpayable",
      "type": "function"
    },
    {
      "inputs": [],
      "payable": false,
      "stateMutability": "nonpayable",
      "type": "constructor"
    }
  ],
  "bytecode": "0x6060604052341561000f57600080fd5b336000806101000a81548173ffffffffffffffffffffffffffffffffffffffff021916908373ffffffffffffffffffffffffffffffffffffffff160217905550600060405180591061005e5750595b90808252806020026020018201604052506001908051906020019061008492919061008a565b50610157565b828054828255906000526020600020908101928215610103579160200282015b828111156101025782518260006101000a81548173ffffffffffffffffffffffffffffffffffffffff021916908373ffffffffffffffffffffffffffffffffffffffff160217905550916020019190600101906100aa565b5b5090506101109190610114565b5090565b61015491905b8082111561015057600081816101000a81549073ffffffffffffffffffffffffffffffffffffffff02191690555060010161011a565b5090565b90565b6106fe806101666000396000f300606060405260043610610083576000357c0100000000000000000000000000000000000000000000000000000000900463ffffffff1680630ab93971146100885780632e943002146100b1578063476e4aa4146100f357806387dc5eec14610116578063a5440fa01461014f578063b4a99a4e146101b9578063c378f1af1461020e575b600080fd5b341561009357600080fd5b61009b610223565b6040518082815260200191505060405180910390f35b34156100bc57600080fd5b6100f1600480803590602001909190803573ffffffffffffffffffffffffffffffffffffffff16906020019091905050610230565b005b34156100fe57600080fd5b61011460048080359060200190919050506102ec565b005b341561012157600080fd5b61014d600480803573ffffffffffffffffffffffffffffffffffffffff1690602001909190505061038b565b005b341561015a57600080fd5b610162610450565b6040518080602001828103825283818151815260200191508051906020019060200280838360005b838110156101a557808201518184015260208101905061018a565b505050509050019250505060405180910390f35b34156101c457600080fd5b6101cc6104e4565b604051808273ffffffffffffffffffffffffffffffffffffffff1673ffffffffffffffffffffffffffffffffffffffff16815260200191505060405180910390f35b341561021957600080fd5b610221610509565b005b6000600180549050905090565b6000809054906101000a900473ffffffffffffffffffffffffffffffffffffffff1673ffffffffffffffffffffffffffffffffffffffff163373ffffffffffffffffffffffffffffffffffffffff1614156102e3578060018381548110151561029557fe5b906000526020600020900160006101000a81548173ffffffffffffffffffffffffffffffffffffffff021916908373ffffffffffffffffffffffffffffffffffffffff1602179055506102e8565b600080fd5b5050565b6000809054906101000a900473ffffffffffffffffffffffffffffffffffffffff1673ffffffffffffffffffffffffffffffffffffffff163373ffffffffffffffffffffffffffffffffffffffff1614156103835760018181548110151561035057fe5b906000526020600020900160006101000a81549073ffffffffffffffffffffffffffffffffffffffff0219169055610388565b600080fd5b50565b6000809054906101000a900473ffffffffffffffffffffffffffffffffffffffff1673ffffffffffffffffffffffffffffffffffffffff163373ffffffffffffffffffffffffffffffffffffffff16141561044857600180548060010182816103f491906105a0565b9160005260206000209001600083909190916101000a81548173ffffffffffffffffffffffffffffffffffffffff021916908373ffffffffffffffffffffffffffffffffffffffff1602179055505061044d565b600080fd5b50565b6104586105cc565b60018054806020026020016040519081016040528092919081815260200182805480156104da57602002820191906000526020600020905b8160009054906101000a900473ffffffffffffffffffffffffffffffffffffffff1673ffffffffffffffffffffffffffffffffffffffff1681526020019060010190808311610490575b5050505050905090565b6000809054906101000a900473ffffffffffffffffffffffffffffffffffffffff1681565b6000809054906101000a900473ffffffffffffffffffffffffffffffffffffffff1673ffffffffffffffffffffffffffffffffffffffff163373ffffffffffffffffffffffffffffffffffffffff16141561059957600060405180591061056d5750595b9080825280602002602001820160405250600190805190602001906105939291906105e0565b5061059e565b600080fd5b565b8154818355818115116105c7578183600052602060002091820191016105c6919061066a565b5b505050565b602060405190810160405280600081525090565b828054828255906000526020600020908101928215610659579160200282015b828111156106585782518260006101000a81548173ffffffffffffffffffffffffffffffffffffffff021916908373ffffffffffffffffffffffffffffffffffffffff16021790555091602001919060010190610600565b5b509050610666919061068f565b5090565b61068c91905b80821115610688576000816000905550600101610670565b5090565b90565b6106cf91905b808211156106cb57600081816101000a81549073ffffffffffffffffffffffffffffffffffffffff021916905550600101610695565b5090565b905600a165627a7a72305820d30b34aa0e3c54d9a0594b647d60e29aeef3455afbe9e78de3e749dbcec69f9c0029",
  "source": "pragma solidity ^0.4.4;\n\nimport \"./Category.sol\";\n\ncontract CategoryCatalog {\n  \n  modifier OwnerOnly {\n    if (msg.sender == Owner) {\n      _;\n    } else {\n      revert();\n    }\n  }\n\n  address public Owner;\n  Category[] Categories;\n\n  function CategoryCatalog() {\n    Owner = msg.sender;\n    Categories = new Category[](0);\n  }\n\n  function Add(Category category) OwnerOnly {\n    Categories.push(category);\n  }\n\n  function Remove(uint i) OwnerOnly {\n    delete Categories[i];\n  }\n\n  function RemoveAll() OwnerOnly {\n    Categories = new Category[](0);\n  }\n\n  function Update(uint i, Category category) OwnerOnly {\n    Categories[i] = category;\n  }\n\n  function GetCount() constant returns(uint) {\n    return Categories.length;\n  }\n\n  function GetAll() constant returns(Category[]) {\n    return Categories;\n  }\n\n}\n\n\n// These enums are for descriptive reasons only and do not\n// represent the actual values to be used in the uint32 member\n// variables seen below since they are used as bitfields.\n// enum DirectiveType { Consent, Delegate /* Delegate authority to consent on his/her behalf */ } // Not used ATM\n// enum RecordTypeValues { Any, Specific, XRay, LabReports, Prescription }\n// enum AccessTypeValues { Any, View, Modify, Order, Consult, AddNote, Diagnosis }\n// enum WhyValues { Any, PrimaryCare, Diagnosis, Treatment, SpecificProcedures, Emergency, RecordCorrection, CaseManagement }\n\n/*\nuint32 public RecordType; // The record type\nfunction SetRecordType(uint32 recordType) { RecordType = recordType; }\n\naddress public Record; // The record when RecordType is Specific. Null otherwise.\nfunction SetRecord(address record) { Record = record; }\n\nuint32 public AccessType; // The access type\nfunction SetAccessType(uint32 accessType) { AccessType = accessType; }\n\nuint32 public Why; // The why\nfunction SetWhy(uint32 why) { Why = why; }\n\naddress[] public Origin; // Eastern Health, Hospital Specific, Clinic Specific... Empty array represents any\nfunction AddOrigin(address origin) { Origin.push(origin); }\n*/\n\n\n",
  "sourcePath": "/Users/marvin/src/ethereum_learning/ConsentDirectives/contracts/CategoryCatalog.sol",
  "compiler": {
    "name": "solc",
    "version": "0.4.18+commit.9cf6e910.Emscripten.clang"
  },
  "schemaVersion": "1.0.1",
  "updatedAt": "2017-11-19T04:18:46.009Z"
}