{
  "contractName": "Category",
  "abi": [
    {
      "constant": false,
      "inputs": [
        {
          "name": "consentData",
          "type": "uint256"
        }
      ],
      "name": "AddConsentData",
      "outputs": [],
      "payable": false,
      "stateMutability": "nonpayable",
      "type": "function"
    },
    {
      "constant": false,
      "inputs": [
        {
          "name": "name",
          "type": "string"
        }
      ],
      "name": "SetName",
      "outputs": [],
      "payable": false,
      "stateMutability": "nonpayable",
      "type": "function"
    },
    {
      "constant": true,
      "inputs": [],
      "name": "GetConsentDataCount",
      "outputs": [
        {
          "name": "",
          "type": "uint256"
        }
      ],
      "payable": false,
      "stateMutability": "view",
      "type": "function"
    },
    {
      "constant": true,
      "inputs": [],
      "name": "Name",
      "outputs": [
        {
          "name": "",
          "type": "string"
        }
      ],
      "payable": false,
      "stateMutability": "view",
      "type": "function"
    },
    {
      "constant": true,
      "inputs": [
        {
          "name": "",
          "type": "uint256"
        }
      ],
      "name": "ConsentData",
      "outputs": [
        {
          "name": "",
          "type": "uint256"
        }
      ],
      "payable": false,
      "stateMutability": "view",
      "type": "function"
    },
    {
      "constant": true,
      "inputs": [
        {
          "name": "i",
          "type": "uint256"
        }
      ],
      "name": "GetConsentData",
      "outputs": [
        {
          "name": "",
          "type": "uint256"
        }
      ],
      "payable": false,
      "stateMutability": "view",
      "type": "function"
    },
    {
      "inputs": [
        {
          "name": "name",
          "type": "string"
        }
      ],
      "payable": false,
      "stateMutability": "nonpayable",
      "type": "constructor"
    }
  ],
  "bytecode": "0x6060604052341561000f57600080fd5b6040516105d73803806105d783398101604052808051820191905050806000908051906020019061004192919061007e565b5060006040518059106100515750595b9080825280602002602001820160405250600190805190602001906100779291906100fe565b5050610170565b828054600181600116156101000203166002900490600052602060002090601f016020900481019282601f106100bf57805160ff19168380011785556100ed565b828001600101855582156100ed579182015b828111156100ec5782518255916020019190600101906100d1565b5b5090506100fa919061014b565b5090565b82805482825590600052602060002090810192821561013a579160200282015b8281111561013957825182559160200191906001019061011e565b5b509050610147919061014b565b5090565b61016d91905b80821115610169576000816000905550600101610151565b5090565b90565b6104588061017f6000396000f300606060405260043610610078576000357c0100000000000000000000000000000000000000000000000000000000900463ffffffff168063488a67051461007d5780634df9dcd3146100a05780637028b3b9146100fd5780638052474d1461012657806392243743146101b4578063c70a9246146101eb575b600080fd5b341561008857600080fd5b61009e6004808035906020019091905050610222565b005b34156100ab57600080fd5b6100fb600480803590602001908201803590602001908080601f0160208091040260200160405190810160405280939291908181526020018383808284378201915050505050509190505061024e565b005b341561010857600080fd5b610110610268565b6040518082815260200191505060405180910390f35b341561013157600080fd5b610139610275565b6040518080602001828103825283818151815260200191508051906020019080838360005b8381101561017957808201518184015260208101905061015e565b50505050905090810190601f1680156101a65780820380516001836020036101000a031916815260200191505b509250505060405180910390f35b34156101bf57600080fd5b6101d56004808035906020019091905050610313565b6040518082815260200191505060405180910390f35b34156101f657600080fd5b61020c6004808035906020019091905050610337565b6040518082815260200191505060405180910390f35b60018054806001018281610236919061035b565b91600052602060002090016000839091909150555050565b8060009080519060200190610264929190610387565b5050565b6000600180549050905090565b60008054600181600116156101000203166002900480601f01602080910402602001604051908101604052809291908181526020018280546001816001161561010002031660029004801561030b5780601f106102e05761010080835404028352916020019161030b565b820191906000526020600020905b8154815290600101906020018083116102ee57829003601f168201915b505050505081565b60018181548110151561032257fe5b90600052602060002090016000915090505481565b600060018281548110151561034857fe5b9060005260206000209001549050919050565b815481835581811511610382578183600052602060002091820191016103819190610407565b5b505050565b828054600181600116156101000203166002900490600052602060002090601f016020900481019282601f106103c857805160ff19168380011785556103f6565b828001600101855582156103f6579182015b828111156103f55782518255916020019190600101906103da565b5b5090506104039190610407565b5090565b61042991905b8082111561042557600081600090555060010161040d565b5090565b905600a165627a7a723058206c532f1ce5c7ab9b7614ba208c0279c2461e23d9e0768d41a847395417188b050029",
  "source": "pragma solidity ^0.4.4;\n\ncontract Category {\n\n  string public Name;\n  function SetName(string name) { Name = name; }\n\n  // TODO use future ConsentData type when that's done\n  uint256[] public ConsentData;\n  function GetConsentData(uint i) constant returns(uint256) { return ConsentData[i]; }\n  function GetConsentDataCount() constant returns(uint256) { return ConsentData.length; }\n  function AddConsentData(uint256 consentData) { ConsentData.push(consentData); }\n\n  function Category(string name) {\n    Name = name;\n    ConsentData = new uint256[](0);\n  }\n  \n}\n",
  "sourcePath": "/Users/marvin/src/ethereum_learning/ConsentDirectives/contracts/Category.sol",
  "compiler": {
    "name": "solc",
    "version": "0.4.18+commit.9cf6e910.Emscripten.clang"
  },
  "schemaVersion": "1.0.1",
  "updatedAt": "2017-11-19T03:03:40.213Z"
}