{
  "contractName": "ConsentDirective",
  "abi": [
    {
      "constant": false,
      "inputs": [
        {
          "name": "what",
          "type": "uint256"
        }
      ],
      "name": "SetWhat",
      "outputs": [],
      "payable": false,
      "stateMutability": "nonpayable",
      "type": "function"
    },
    {
      "constant": true,
      "inputs": [],
      "name": "Who",
      "outputs": [
        {
          "name": "",
          "type": "address"
        }
      ],
      "payable": false,
      "stateMutability": "view",
      "type": "function"
    },
    {
      "constant": false,
      "inputs": [
        {
          "name": "who",
          "type": "address"
        }
      ],
      "name": "SetWho",
      "outputs": [],
      "payable": false,
      "stateMutability": "nonpayable",
      "type": "function"
    },
    {
      "constant": true,
      "inputs": [],
      "name": "What",
      "outputs": [
        {
          "name": "",
          "type": "uint256"
        }
      ],
      "payable": false,
      "stateMutability": "view",
      "type": "function"
    },
    {
      "constant": false,
      "inputs": [
        {
          "name": "record",
          "type": "address"
        }
      ],
      "name": "SetRecord",
      "outputs": [],
      "payable": false,
      "stateMutability": "nonpayable",
      "type": "function"
    },
    {
      "constant": true,
      "inputs": [],
      "name": "Record",
      "outputs": [
        {
          "name": "",
          "type": "address"
        }
      ],
      "payable": false,
      "stateMutability": "view",
      "type": "function"
    },
    {
      "constant": true,
      "inputs": [],
      "name": "HasDelegateAuthority",
      "outputs": [
        {
          "name": "",
          "type": "bool"
        }
      ],
      "payable": false,
      "stateMutability": "view",
      "type": "function"
    },
    {
      "inputs": [
        {
          "name": "who",
          "type": "address"
        },
        {
          "name": "what",
          "type": "uint256"
        }
      ],
      "payable": false,
      "stateMutability": "nonpayable",
      "type": "constructor"
    }
  ],
  "bytecode": "0x6060604052341561000f57600080fd5b60405160408061040883398101604052808051906020019091908051906020019091905050816000806101000a81548173ffffffffffffffffffffffffffffffffffffffff021916908373ffffffffffffffffffffffffffffffffffffffff160217905550806001819055506000600260006101000a81548173ffffffffffffffffffffffffffffffffffffffff021916908373ffffffffffffffffffffffffffffffffffffffff160217905550505061033a806100ce6000396000f300606060405260043610610083576000357c0100000000000000000000000000000000000000000000000000000000900463ffffffff168063183d255e1461008857806339ce3c1a146100ab578063739d330714610100578063750e68f614610139578063ab6f78f014610162578063c2be10dd1461019b578063eb1f9c78146101f0575b600080fd5b341561009357600080fd5b6100a9600480803590602001909190505061021d565b005b34156100b657600080fd5b6100be610227565b604051808273ffffffffffffffffffffffffffffffffffffffff1673ffffffffffffffffffffffffffffffffffffffff16815260200191505060405180910390f35b341561010b57600080fd5b610137600480803573ffffffffffffffffffffffffffffffffffffffff1690602001909190505061024c565b005b341561014457600080fd5b61014c61028f565b6040518082815260200191505060405180910390f35b341561016d57600080fd5b610199600480803573ffffffffffffffffffffffffffffffffffffffff16906020019091905050610295565b005b34156101a657600080fd5b6101ae6102d9565b604051808273ffffffffffffffffffffffffffffffffffffffff1673ffffffffffffffffffffffffffffffffffffffff16815260200191505060405180910390f35b34156101fb57600080fd5b6102036102ff565b604051808215151515815260200191505060405180910390f35b8060018190555050565b6000809054906101000a900473ffffffffffffffffffffffffffffffffffffffff1681565b806000806101000a81548173ffffffffffffffffffffffffffffffffffffffff021916908373ffffffffffffffffffffffffffffffffffffffff16021790555050565b60015481565b80600260006101000a81548173ffffffffffffffffffffffffffffffffffffffff021916908373ffffffffffffffffffffffffffffffffffffffff16021790555050565b600260009054906101000a900473ffffffffffffffffffffffffffffffffffffffff1681565b600060018060015416149050905600a165627a7a723058209ae4afbca291b57df00aee00055316bb86a55a4fca32584d350ca9ed3c64bfb60029",
  "source": "pragma solidity ^0.4.4;\n\ncontract ConsentDirective {\n\n  // To whom the Patient is giving consent\n  address public Who; \n  function SetWho(address who) { Who = who; }\n\n  // The semantics of the What are specified by the system administrator\n  // All bits except the four least significant bits are of general purpose\n  //\n  // Four LSBs:\n  // Bit 0: authority to consent on the patient's behalf\n  // Bit 1: specific record -- this instance represents the consent directives of a specific medical record\n  // Bit 2: reserved\n  // Bit 3: reserved\n  //\n  // TODO refactor uint256 (consent data) to its own type (ConsentData contract)\n  uint256 public What;\n  function SetWhat(uint256 what) { What = what; }\n\n  // Specific record that this instance represents\n  // Null when non-specific\n  address public Record;\n  function SetRecord(address record) { Record = record; }\n\n  // TODO add expiry date\n\n  function ConsentDirective(address who, uint256 what) {\n    Who = who;\n    What = what;\n    Record = address(0);\n  }\n\n  function HasDelegateAuthority() constant returns(bool) {\n    return (What & 0x1 == 0x1);\n  }\n}\n",
  "sourcePath": "/Users/marvin/src/ethereum_learning/ConsentDirectives/contracts/ConsentDirective.sol",
  "compiler": {
    "name": "solc",
    "version": "0.4.18+commit.9cf6e910.Emscripten.clang"
  },
  "schemaVersion": "1.0.1",
  "updatedAt": "2017-11-20T02:38:16.693Z"
}