{
  "contractName": "PatientFactory",
  "abi": [
    {
      "constant": false,
      "inputs": [],
      "name": "DeletePatient",
      "outputs": [],
      "payable": false,
      "stateMutability": "nonpayable",
      "type": "function"
    },
    {
      "constant": false,
      "inputs": [],
      "name": "MakePatient",
      "outputs": [],
      "payable": false,
      "stateMutability": "nonpayable",
      "type": "function"
    },
    {
      "constant": true,
      "inputs": [],
      "name": "GetPatient",
      "outputs": [
        {
          "name": "",
          "type": "address"
        }
      ],
      "payable": false,
      "stateMutability": "view",
      "type": "function"
    },
    {
      "inputs": [],
      "payable": false,
      "stateMutability": "nonpayable",
      "type": "constructor"
    }
  ],
  "bytecode": "0x6060604052341561000f57600080fd5b6111dc8061001e6000396000f300606060405260043610610057576000357c0100000000000000000000000000000000000000000000000000000000900463ffffffff168063752b016d1461005c578063efbe389414610071578063ff2311a414610086575b600080fd5b341561006757600080fd5b61006f6100db565b005b341561007c57600080fd5b61008461013e565b005b341561009157600080fd5b61009961028f565b604051808273ffffffffffffffffffffffffffffffffffffffff1673ffffffffffffffffffffffffffffffffffffffff16815260200191505060405180910390f35b6000803373ffffffffffffffffffffffffffffffffffffffff1673ffffffffffffffffffffffffffffffffffffffff16815260200190815260200160002060006101000a81549073ffffffffffffffffffffffffffffffffffffffff0219169055565b60008060003373ffffffffffffffffffffffffffffffffffffffff1673ffffffffffffffffffffffffffffffffffffffff16815260200190815260200160002060009054906101000a900473ffffffffffffffffffffffffffffffffffffffff1673ffffffffffffffffffffffffffffffffffffffff16141561028d57336101c46102f5565b808273ffffffffffffffffffffffffffffffffffffffff1673ffffffffffffffffffffffffffffffffffffffff168152602001915050604051809103906000f080151561021057600080fd5b6000803373ffffffffffffffffffffffffffffffffffffffff1673ffffffffffffffffffffffffffffffffffffffff16815260200190815260200160002060006101000a81548173ffffffffffffffffffffffffffffffffffffffff021916908373ffffffffffffffffffffffffffffffffffffffff1602179055505b565b60008060003373ffffffffffffffffffffffffffffffffffffffff1673ffffffffffffffffffffffffffffffffffffffff16815260200190815260200160002060009054906101000a900473ffffffffffffffffffffffffffffffffffffffff16905090565b604051610eab806103068339019056006060604052341561000f57600080fd5b604051602080610eab83398101604052808051906020019091905050806000806101000a81548173ffffffffffffffffffffffffffffffffffffffff021916908373ffffffffffffffffffffffffffffffffffffffff16021790555050610e308061007b6000396000f3006060604052600436106100a4576000357c0100000000000000000000000000000000000000000000000000000000900463ffffffff1680630ae50a39146100a95780632bad8140146100fe5780634bfeae17146101375780634cf69cec146101a757806362267acf1461021757806383054b6a1461027a578063882bc3e1146102a35780639f59fc5a146102b8578063b04a168014610322578063b4a99a4e14610385575b600080fd5b34156100b457600080fd5b6100bc6103da565b604051808273ffffffffffffffffffffffffffffffffffffffff1673ffffffffffffffffffffffffffffffffffffffff16815260200191505060405180910390f35b341561010957600080fd5b610135600480803573ffffffffffffffffffffffffffffffffffffffff16906020019091905050610403565b005b341561014257600080fd5b61018d600480803573ffffffffffffffffffffffffffffffffffffffff1690602001909190803573ffffffffffffffffffffffffffffffffffffffff16906020019091905050610561565b604051808215151515815260200191505060405180910390f35b34156101b257600080fd5b6101fd600480803573ffffffffffffffffffffffffffffffffffffffff1690602001909190803573ffffffffffffffffffffffffffffffffffffffff169060200190919050506108ff565b604051808215151515815260200191505060405180910390f35b341561022257600080fd5b6102386004808035906020019091905050610af2565b604051808273ffffffffffffffffffffffffffffffffffffffff1673ffffffffffffffffffffffffffffffffffffffff16815260200191505060405180910390f35b341561028557600080fd5b61028d610b31565b6040518082815260200191505060405180910390f35b34156102ae57600080fd5b6102b6610b3e565b005b34156102c357600080fd5b6102cb610bd5565b6040518080602001828103825283818151815260200191508051906020019060200280838360005b8381101561030e5780820151818401526020810190506102f3565b505050509050019250505060405180910390f35b341561032d57600080fd5b6103436004808035906020019091905050610c69565b604051808273ffffffffffffffffffffffffffffffffffffffff1673ffffffffffffffffffffffffffffffffffffffff16815260200191505060405180910390f35b341561039057600080fd5b610398610cad565b604051808273ffffffffffffffffffffffffffffffffffffffff1673ffffffffffffffffffffffffffffffffffffffff16815260200191505060405180910390f35b60008060009054906101000a900473ffffffffffffffffffffffffffffffffffffffff16905090565b3073ffffffffffffffffffffffffffffffffffffffff16634cf69cec33836000604051602001526040518363ffffffff167c0100000000000000000000000000000000000000000000000000000000028152600401808373ffffffffffffffffffffffffffffffffffffffff1673ffffffffffffffffffffffffffffffffffffffff1681526020018273ffffffffffffffffffffffffffffffffffffffff1673ffffffffffffffffffffffffffffffffffffffff16815260200192505050602060405180830381600087803b15156104da57600080fd5b6102c65a03f115156104eb57600080fd5b505050604051805190501561055e576001805480600101828161050e9190610cd2565b9160005260206000209001600083909190916101000a81548173ffffffffffffffffffffffffffffffffffffffff021916908373ffffffffffffffffffffffffffffffffffffffff160217905550505b50565b6000806000806000806000809054906101000a900473ffffffffffffffffffffffffffffffffffffffff1673ffffffffffffffffffffffffffffffffffffffff168873ffffffffffffffffffffffffffffffffffffffff1614156105c857600195506108f4565b600094505b6001805490508510156108ef576001858154811015156105e957fe5b906000526020600020900160009054906101000a900473ffffffffffffffffffffffffffffffffffffffff1673ffffffffffffffffffffffffffffffffffffffff166339ce3c1a6000604051602001526040518163ffffffff167c0100000000000000000000000000000000000000000000000000000000028152600401602060405180830381600087803b151561068057600080fd5b6102c65a03f1151561069157600080fd5b5050506040518051905073ffffffffffffffffffffffffffffffffffffffff168873ffffffffffffffffffffffffffffffffffffffff161415156106d4576108e2565b6001858154811015156106e357fe5b906000526020600020900160009054906101000a900473ffffffffffffffffffffffffffffffffffffffff1673ffffffffffffffffffffffffffffffffffffffff1663750e68f66000604051602001526040518163ffffffff167c0100000000000000000000000000000000000000000000000000000000028152600401602060405180830381600087803b151561077a57600080fd5b6102c65a03f1151561078b57600080fd5b505050604051805190509350600092505b8673ffffffffffffffffffffffffffffffffffffffff16637028b3b96000604051602001526040518163ffffffff167c0100000000000000000000000000000000000000000000000000000000028152600401602060405180830381600087803b151561080857600080fd5b6102c65a03f1151561081957600080fd5b505050604051805190508310156108e1578673ffffffffffffffffffffffffffffffffffffffff1663c70a9246846000604051602001526040518263ffffffff167c010000000000000000000000000000000000000000000000000000000002815260040180828152602001915050602060405180830381600087803b15156108a157600080fd5b6102c65a03f115156108b257600080fd5b5050506040518051905091508184169050818114156108d457600195506108f4565b828060010193505061079c565b5b84806001019550506105cd565b600095505b505050505092915050565b6000806000806000809054906101000a900473ffffffffffffffffffffffffffffffffffffffff1673ffffffffffffffffffffffffffffffffffffffff168673ffffffffffffffffffffffffffffffffffffffff1614156109635760019350610ae9565b60018573ffffffffffffffffffffffffffffffffffffffff1663750e68f66000604051602001526040518163ffffffff167c0100000000000000000000000000000000000000000000000000000000028152600401602060405180830381600087803b15156109d157600080fd5b6102c65a03f115156109e257600080fd5b50505060405180519050179250600091505b600180549050821015610ae457600182815481101515610a1057fe5b906000526020600020900160009054906101000a900473ffffffffffffffffffffffffffffffffffffffff1673ffffffffffffffffffffffffffffffffffffffff1663750e68f66000604051602001526040518163ffffffff167c0100000000000000000000000000000000000000000000000000000000028152600401602060405180830381600087803b1515610aa757600080fd5b6102c65a03f11515610ab857600080fd5b505050604051805190509050828184161415610ad75760019350610ae9565b81806001019250506109f4565b600093505b50505092915050565b600181815481101515610b0157fe5b90600052602060002090016000915054906101000a900473ffffffffffffffffffffffffffffffffffffffff1681565b6000600180549050905090565b6000809054906101000a900473ffffffffffffffffffffffffffffffffffffffff1673ffffffffffffffffffffffffffffffffffffffff163373ffffffffffffffffffffffffffffffffffffffff161415610bce576000604051805910610ba25750595b908082528060200260200182016040525060019080519060200190610bc8929190610cfe565b50610bd3565b600080fd5b565b610bdd610d88565b6001805480602002602001604051908101604052809291908181526020018280548015610c5f57602002820191906000526020600020905b8160009054906101000a900473ffffffffffffffffffffffffffffffffffffffff1673ffffffffffffffffffffffffffffffffffffffff1681526020019060010190808311610c15575b5050505050905090565b6000600182815481101515610c7a57fe5b906000526020600020900160009054906101000a900473ffffffffffffffffffffffffffffffffffffffff169050919050565b6000809054906101000a900473ffffffffffffffffffffffffffffffffffffffff1681565b815481835581811511610cf957818360005260206000209182019101610cf89190610d9c565b5b505050565b828054828255906000526020600020908101928215610d77579160200282015b82811115610d765782518260006101000a81548173ffffffffffffffffffffffffffffffffffffffff021916908373ffffffffffffffffffffffffffffffffffffffff16021790555091602001919060010190610d1e565b5b509050610d849190610dc1565b5090565b602060405190810160405280600081525090565b610dbe91905b80821115610dba576000816000905550600101610da2565b5090565b90565b610e0191905b80821115610dfd57600081816101000a81549073ffffffffffffffffffffffffffffffffffffffff021916905550600101610dc7565b5090565b905600a165627a7a723058200595fa81fc5e81c74113930774f159a1cc08cadf0296e61d9aab05b8b6955a8c0029a165627a7a72305820bd323f040e69548542736a744c33135e5c3df5e1b3c8e63e0a58927e2c1cc4770029",
  "source": "// https://github.com/acloudfan/Blockchain-Course-Patterns/blob/master/test/contract_factory.js\n// https://github.com/acloudfan/Blockchain-Course-Patterns/blob/master/contracts/ContractFactory.sol\n\npragma solidity ^0.4.4;\n\nimport \"./Patient.sol\";\n\ncontract PatientFactory {\n\n  // Maps accounts to its respective Patient instance\n  mapping(address => Patient) mMap;\n\n  function PatientFactory() {\n  }\n\n  function MakePatient() {\n    if (address(mMap[msg.sender]) == 0) {\n      mMap[msg.sender] = new Patient(msg.sender);\n    }\n  }\n\n  function DeletePatient() {\n    delete mMap[msg.sender];\n  }\n\n  // Gets the address of the Patient instance associated with the caller\n  function GetPatient() constant returns (Patient) {\n    return mMap[msg.sender];\n  }\n\n}\n",
  "sourcePath": "/Users/marvin/src/ethereum_learning/ConsentDirectives/contracts/PatientFactory.sol",
  "compiler": {
    "name": "solc",
    "version": "0.4.18+commit.9cf6e910.Emscripten.clang"
  },
  "schemaVersion": "1.0.1",
  "updatedAt": "2017-11-20T02:38:16.708Z"
}